:10000000F6EF06F062961200046ED8CF05F0E0CF4E
:1000100006F00001E9CF0CF0EACF07F0E1CF08F0DD
:10002000E2CF09F0D9CF0AF0DACF0BF0F3CF12F01C
:10003000F4CF13F0FACF14F0F5CF15F0F6CF16F099
:10004000F7CF17F000C00EF001C00FF002C010F0A3
:1000500003C011F0A0A430EF00F0A1B4BCEF05F094
:100060000EC000F00FC001F010C002F011C003F08C
:100070000CC0E9FF07C0EAFF078E08C0E1FF09C016
:10008000E2FF0AC0D9FF0BC0DAFF12C0F3FF13C0B2
:10009000F4FF14C0FAFF15C0F5FF16C0F6FF17C035
:1000A000F7FF045006C0E0FF05C0D8FF1000F76A54
:1000B000BE0FF66E000EF7220900F5501200000286
:1000C000FFFFFFFFFFFFFFFFFFFFFFFFFFFFF76ADD
:1000D000DE0FF66E000EF7220900F5501200080040
:1000E00020000000000000000000000000000000F0
:1000F0000000000000000000000000000000F76A9F
:100100000E0FF66E010EF7220900F55012000902DB
:100110002000010100C0640904000002FFFFFF008D
:100120000705810220000107050102200001F76A8E
:100130003E0FF66E010EF7220900F5501200010085
:10014000F76A500FF66E010EF7220900F550120003
:100150001201000200000008D8040B000100010297
:100160000001F76A720FF66E010EF7220900F550D2
:10017000120000040C00F76A860FF66E010EF722DB
:100180000900F55012000403090408035500540047
:100190004E002A03470065006E0065007200610092
:1001A00064006F007200200064006500200073008E
:1001B0006500F10061006C0065007300649260945A
:1001C00062A402D06294FCD7C8EF05F0080E0201C9
:1001D000016F020E036F100E026F880E006F046B2A
:1001E000020E076F180E066F000112000F0153A1D7
:1001F00004D00001EBDF0F015391629A0001D1EFAF
:1002000005F00F015F6B62920001D7EF05F0689176
:1002100067BF6881679F6751100803E2000E016E97
:1002200016D068A10BD0036A675141DFFF0802E1D5
:10023000000E01D0010E016E0AD009D0036A675189
:1002400036DFFF0802E1000E01D0010E016E120040
:10025000036A6651530FE96E0F0E0320EA6EEF6AD0
:1002600066C067F0D4DF015218E06651080DF35004
:10027000686BE96E020E6825EA6EEF6A6651080D3A
:10028000F350686B676F040E6727000E682367C022
:10029000E9FF020E6825EA6EEF6A1200010E656F33
:1002A0006551070805E365C066F0D2DF652BF8D716
:1002B0001200266A256A5B6A5B520AE1036A5B5098
:1002C000270FE96E000E0320EA6EEF6A5B2AF4D76F
:1002D0001C6A010E1D6E1B6A12000F015F6B626AC1
:1002E0009F0E5B6F3D0E606E5C6B0001D7DFE1DF40
:1002F000160E0F01536F62A604D0000183DE0F01BA
:10030000FAD76498000162DF030E206EDDEF05F07E
:10031000608462986482E3EF05F0629CE9EF05F087
:1003200060C021F01200216812005E6A255026107C
:100330002DE05E5007082AE31E5005E0020A09E09E
:10034000010A0DE011D024C003F02350D8DE5F6E07
:100350000BD024C003F023500EDF5F6E05D024C005
:1003600003F02350EDDE5F6E232AD8B4242A2550F3
:10037000D8B4260625065E505E2A036A180FE96E79
:10038000020E0320EA6E5FC0EFFFD0D72550261083
:1003900004E15E50080801E01B6A5EC060F0C0DF47
:1003A0001200246A236A1E6A02011351010A000125
:1003B00005E0030A09E0010A0BE01ED0266A120ECE
:1003C000256E030E1E6E1AD0266A200E256E16D0DC
:1003D000020E1E6E036A020112510001C2DE036AA0
:1003E000236E03C024F024C003F02350C4DE036A4C
:1003F000256E03C026F002D096DF0FD002011753FE
:1004000008E1265203E12550165D03E2266A16C272
:1004100025F0010E1B6E000188DF18EF03F05D521E
:1004200004E1040E206E3ADFB1D0050E206E020EFC
:10043000606F200E5F6E010E5E6E5E500708D8A0E2
:10044000A5D05EC066F004DF616B036A5E502FDEEC
:10045000FF084DE0040E616FD8905E34036A37DE0A
:100460000900F5CF03F0626F03C063F05E50080D22
:10047000F350666B656F010E6525016E000E6621F7
:10048000036E01C0E9FF020E0324EA6E62C0EFFFB3
:100490005E50080DF350666B656F020E6525016EA8
:1004A000000E6621036E01C0E9FF020E0324EA6E0E
:1004B00060C0ECFFED525FC0EFFFD8905E34036A7E
:1004C00006DE0900F5CF03F05F2603506023880E97
:1004D000646F63B1648163B364835E50080DF3504D
:1004E000666BE96E020E6625EA6E64C0EFFF036A72
:1004F0005E50DDDDFF0834E061835E50080DF3508F
:10050000666B656F040E6527000E6623020E652577
:10051000016E000E6621036E01C0E9FF020E032486
:10052000EA6E60C0ECFFED525FC0EFFFD8905E3422
:10053000036ACDDD0900F5CF03F05F260350602389
:100540005E50080DF350666B656F040E6527000E54
:10055000662365C0E9FF020E6625EA6E400EEF6E67
:100560006151060802E10E0E616F036A5E509FDD65
:100570000108D8A46189036A5E50530FE96E0F0E1B
:100580000320EA6E61C0EFFF5E2A57D713EF03F036
:1005900002011151000A00010DE0010A14E0020AF3
:1005A0001EE0060A27E0030A2CE00E0A2CE0010AEE
:1005B00030E03DD01DC018F20201196B020E00019F
:1005C000606FAEDE35D00201122D06D0010E1D1671
:1005D0000001606BA5DE02D00001A5DE29D002017A
:1005E000122D05D01D820001606B9ADE02D0000141
:1005F0009ADE1ED0020E1B6E12C222F0606B90DEDD
:1006000017D0CFD615D01CC018F2010E606F88DE4F
:100610000FD002011251010808E312C21CF012C2ED
:100620005DF00001FCD6606B7BDE000101D07BDE5B
:1006300012EF04F01CC05DF002011151000A00012C
:1006400005E00A0A0BE0010A26E037D00201186B28
:10065000196B020E0001606F63DE30D05D5219E04D
:10066000010E5D5C036A63DD016E0201145DD8A0BA
:1006700002D000010ED0036A1451270FE96E000E5C
:100680000320EA6EEFCF18F2010E0001606F48DE22
:1006900001D049DE13D05D520EE0036A020114510D
:1006A000270FE96E000E0320EA6E12C2EFFF000171
:1006B000606B36DE01D037DE01D035DE12EF04F09C
:1006C0005E905DBE5E805D9E5EA011D05D50080DA7
:1006D000F350606B5F6E040E5F26000E60235FC0F8
:1006E000E9FF020E6025EA6E880EEF6E09D05D50BC
:1006F000080DF350606BE96E020E6025EA6EEF6A3A
:10070000E2EF03F05E905DBE5E805D9E5EA011D064
:100710005D50080DF350606B5F6E040E5F26000E97
:1007200060235FC0E9FF020E6025EA6E840EEF6E63
:100730000AD05D50080DF350606BE96E020E602523
:10074000EA6E840EEF6EE8EF03F05E905DBE5E80B1
:100750005D9E5EA011D05D50080DF350616B606F1F
:10076000040E6027000E612360C0E9FF020E6125C0
:10077000EA6EEFCF5FF00AD05D50080DF350616B69
:10078000E96E020E6125EA6EEFCF5FF05FAE02D038
:100790005FB402D0000E01D0010E016EF2EF03F043
:1007A00014C267F034DD015228E002011151010A40
:1007B000000105E0020A09E0030A0DE01DD014C2A1
:1007C0005DF07ED7606BACDD18D014C25DF09AD7B7
:1007D000606BA6DD12D00201186B196B14C25DF0BC
:1007E0000001B3D7015204E0010E0201186F0001AD
:1007F000020E606F95DD01D096DD12EF04F01B6AEA
:10080000020110517F0B000A000105E0010A05E01A
:10081000030A05E006D0BCD605D00CD703D0C0D75C
:1008200001D081DD30EF05F05D50080DF350636BB2
:10083000E96E020E6325EA6EEFCF5FF05E500208AC
:1008400006E15FAC02D05E6A02D0010E5E6E5E50C1
:10085000030813E1840E5F6E5D50080DF350636B67
:10086000626F040E6227000E632362C0E9FF020E6E
:100870006325EA6E840EEF6E07D05E2C03D0C80E9F
:100880005F6E02D0880E5F6ED8905D34036A1FDC05
:100890000900F5CF03F0606F03C061F05D50080DF3
:1008A000F350636B626F010E6225016E000E6321CF
:1008B000036E01C0E9FF020E0324EA6E60C0EFFF81
:1008C00061B15F8061B35F825D50080DF350636B6F
:1008D000E96E020E6325EA6E5FC0EFFF1200036A45
:1008E0006251530FE96E0F0E0320EA6EEF5212E0D1
:1008F0006251080DF350646B636F040E6327000EA2
:10090000642363C0E9FF020E6425EA6EEFCF65F051
:1009100065AF02D0000E01D0010E016E93EF04F01E
:100920005DC062F0DCD7015261E05D50080DF3500C
:10093000636B626F040E6227000E6323010E622553
:10094000016E000E6321036E01C0E9FF020E032455
:10095000EA6E5EC0EFFF6051020817E15D50080DBE
:10096000F350636B626F040E6227000E632362C054
:10097000E9FF020E6325EA6EEFCF61F061AD02D0B0
:10098000606B02D0010E606F13D06051040810E15B
:100990005D50080DF350636BE96E020E6325EA6E3D
:1009A000EFCF61F061AD03D0010E606F01D0606BDD
:1009B000602D03D0C80E616F02D0880E616F5FB0EA
:1009C00061815FB261835D50080DF350636B626FAC
:1009D000040E6227000E632362C0E9FF020E632546
:1009E000EA6E61C0EFFF010E016E02D0000E016ED3
:1009F00012005D5200E112005EC05CFF5E5203E037
:100A0000040E206E02D0020E206E0CEF05F01C6A60
:100A10001B6A22C05EF0F0D718EF05F05D5208E1C6
:100A20001B2C02D082DC04D01B50020801E1EFD75E
:100A300012001F305B6E5B325B321F0E5B161F5263
:100A400041E1020100513C0B5C6E430E00175C500B
:100A500034081EE10451800B01E0046B0001CFD685
:100A60006498213C05D05D6A030E5E6EDDDE0ED01B
:100A70005D6A020E5E6ED8DE2150FE0807E05D6AF8
:100A80005F6A21C05EF0040E606F4ADF18D0020179
:100A90005C50040815E15D6A0001ABDF5D6A020E7F
:100AA0005E6EC2DE2150FE080AE0213C01D007D074
:100AB0005D6A5F6A21C05EF0010E606F31DF020186
:100AC00058D000011F50040812E1430E0201041720
:100AD00021685D6A0001A2DF213C01D007D05D6A78
:100AE0005F6A21C05EF0020E606F1ADF41D01FB452
:100AF0001BD05B50080DF3505E6A016E020E5E243F
:100B0000036E5B50080DF350626BE96E020E6225B6
:100B1000EA6EEF50430B03C0EAFF01C0E9FFEF6E3E
:100B20005BC05DF066DF24D05B50080DF3505E6A59
:100B30005D6E040E5D26000E5E22020E5E24036EC4
:100B40005B50080DF350626B616F040E6127000E5D
:100B5000622361C0E9FF020E6225EA6EEF50430B8B
:100B600003C0EAFF5DC0E9FFEF6E5BC05DF056DFDA
:100B700002010001F3EF05F0A194205201E139D008
:100B8000625237E062A404D060A402D0DEEF00F02D
:100B900064A201D02ED062AA04D060AA02D0F6EFDF
:100BA00000F062A204D060A202D001EF01F062A0C6
:100BB00004D060A002D06DEF01F062A804D060A85C
:100BC00002D088EF01F062AC04D060AC02D08DEFAF
:100BD00001F05A6A62A608D060A606D063CF1FF063
:100BE00002EC00F026D701D004D05A505A2A03084C
:100BF000F1E230EF00F0EA6A490EE96EEF500EE0E4
:100C00000F0E016E006A002EFED7012EFBD78F0E4D
:100C1000006E002EFED70000EF2EF2D71200646A9D
:100C2000606A616A92500309926E206A196AF2BE84
:100C3000198EF29E59EC01F019BEF28E21EF06F0EA
:100C4000EED746EF06F0196AF2BE198EF29E59EC05
:100C500001F019BEF28E646A140E616E606A6486D9
:100C6000010E206E37EF06F064B601D0ECD7202CD1
:100C70000BD064BA09D0626A606AA084C00EF21216
:100C8000110E606E020E206E1200DAD7EDDF2050DA
:100C90000208FCE135EF07F01C5202E10400FCD72A
:100CA00037EF07F01C50016E38EF07F0036A495028
:100CB000530FE96E0F0E0320EA6EEF520DE049501C
:100CC000080DF3504B6A4A6EE96E020E4B24EA6E31
:100CD000EFCF4CF04CAE02D0000E01D0010E016EF1
:100CE00041EF07F04E50080DF350596A586E020E4E
:100CF0005824016E000E5920036E01C0E9FF020E58
:100D00000324EA6EECCF54F0ED52EFCF53F04E5087
:100D1000080DF350596A586E010E5824016E000EEA
:100D20005920036E01C0E9FF020E0324EA6E576AE0
:100D3000EFCF56F04E50080DF350596AE96E020E8F
:100D40005924EA6EEFCF55F055B0578055B257820F
:100D50005750525C08E303E15150565C04E257C01F
:100D600052F056C051F050C0EAFF4FC0E9FF54C0E6
:100D7000E2FF53C0E1FF52C002F051C001F0015246
:100D800002E0022A02D0025206E0E6CFEEFF012E78
:100D9000FCD7022EFAD751C001F052C002F0DCEFAE
:100DA00006F049C04EF04BC050F04AC04FF04DC065
:100DB00052F04CC051F096D702C04DF001C04CF03B
:100DC000196AF2BE198EF29E49C05DF0020E5E6E87
:100DD0002BDD19BEF28E4CC001F04DC002F04CEF7D
:100DE00007F09EA8FED7AD6E7BEF07F0F86AD09EA5
:100DF000078EEA6AE96A1A6AB8960C0EAF6EA20EFE
:100E0000AC6E900EAB6E000E7E6EC190C192C1941E
:100E1000C1967F6E6B6A6D6A286A296A300E306EE1
:100E2000316E326E336E346E356E366E376E386EAE
:100E3000396E3A6E3B6A3C6E3D6E3E6E3F6E406E62
:100E4000416E426E436E446E456E466E476A7E6AE0
:100E50007F6A94948B8494908B9094928B92640E7E
:100E6000496EC9DE94908B8010D7FEDE15D71AD755
:100E7000015243E094908B9094928B82010E496EC4
:100E800015D701523AE0010E496E4B6A300E4A6E98
:100E90004D6A0C0E4C6E85D7EA6A3C0EE96EE26A2A
:100EA000300EE16EE752E6CFEEFFFCE1300E306E21
:100EB000316E326E336E346E356E366E376E386E1E
:100EC000396E3A6E94948B94050E496E94DE949428
:100ED0008B84C80E496E8FDE2E6A2E500A080DE3F1
:100EE000036A2E503C0FE96E000E0320EA6EEFCF2E
:0E0EF00048F0485076D72E2AF0D7B9D7030025
:020000040030CA
:0E0000000032180E0088890003C003E00340A0
:00000001FF
;PIC18F14K50
;CRC=2C6F  CREATED="13-mar-14 17:44"
