:04000000A4EF00F079
:08000800046ED8CF05F0E0CF33
:1000100006F00001E9CF0CF0EACF07F0E1CF08F0DD
:10002000E2CF09F0D9CF0AF0DACF0BF0F3CF12F01C
:10003000F4CF13F0FACF14F0F5CF15F0F6CF16F099
:10004000F7CF17F000C00EF001C00FF002C010F0A3
:1000500003C011F09DAA30EF00F09EBA57EF00F0F8
:100060000EC000F00FC001F010C002F011C003F08C
:100070000CC0E9FF07C0EAFF078E08C0E1FF09C016
:10008000E2FF0AC0D9FF0BC0DAFF12C0F3FF13C0B2
:10009000F4FF14C0FAFF15C0F5FF16C0F6FF17C035
:1000A000F7FF045006C0E0FF05C0D8FF10009EAA6D
:1000B00013D09EAAFED7AECF20F0036A1F50210FA7
:1000C000E96E000E0320EA6E20C0EFFF1F2A0A0E21
:1000D0001F6E1F5201E01F6A9E9A30EF00F04275BA
:1000E0006666657220646520656E74726164613A4B
:1000F0000A00EA6A2C0EE96EEF500EE00F0E016E58
:10010000006A002EFED7012EFBD78F0E006E002E48
:10011000FED70000EF2EF2D712000900F5520DE0D5
:10012000F6CF2CF0F7CF2DF0F5509EA8FED7AD6E90
:100130002CC0F6FF2DC0F7FFF0D7D7EF00F09EA838
:10014000FED7AD6EEBEF00F0F86AD09E078EEA6A3C
:10015000E96AB886E10EAF6E040EB06EA60EAC6E04
:10016000900EAB6E1F6AC150C00B0F09C16E070E17
:10017000B46E196A1A6A300E216E226E350E236E25
:10018000300E246E256E266E2B0E276E300E286ED6
:10019000296E2A6E310E2B6E9D8AC00EF212C80E89
:1001A0002C6EA7DFDE0EF66E000EF76EB6D781A0BE
:1001B0001ED081A004D0320E2C6E9BDFFAD71F50C8
:1001C0001F2A036A210FE96E000E0320EA6EEFCFAB
:1001D0002CF02C50B4D71F500A0809E11F6A0A0EF0
:1001E0009EA8FED7AD6E0D0E9EA8FED7AD6EDFD7D2
:0201F00003000A
:020000040030CA
:0E0000003BCE261E0081A1000FC00FE00F4076
:00000001FF
;PIC18F4550
;CRC=D5D4  CREATED="06-mar-14 20:58"
