:0400000067EF00F0B6
:10000800FACF47F0FBCF48F0E9CF49F0EACF4AF002
:10001800E1CF4BF0E2CF4CF0D9CF4DF0DACF4EF034
:10002800F3CF4FF0F4CF50F0F6CF51F0F7CF52F0B6
:10003800F8CF53F0F5CF54F0A4AA01D001D005D0E1
:10004800B5EC01F03C6EA49A00D09EAA01D001D074
:100058001DD0D1EC01F03B6E3B50240AD8A401D04E
:1000680001D005D0000E366E000E356E03D0354A2D
:10007800362A00D00001600E3524D96E0001000E2A
:100088003620DA6E3BC0DFFF9E9A00D054C0F5FFE1
:1000980053C0F8FF52C0F7FF51C0F6FF50C0F4FF3D
:1000A8004FC0F3FF4EC0DAFF4DC0D9FF4CC0E2FF8E
:1000B8004BC0E1FF4AC0EAFF49C0E9FF48C0FBFF67
:1000C80047C0FAFF1100EDEF01F0000E926E000E2E
:1000D800936E800E946E040E956E000E896E000E5F
:1000E8008A6E000E8B6E000E8C6E586E7C0E556EEE
:1000F8005850000E576E330E566E7BEC01F0586E5A
:100108007C0E556E5850000E576E330E566E3FECEF
:1001180001F0550EA76EAA0EA76E0E010E01FF91F3
:10012800050E0E010E01DA6F130E0E010E01F66FA9
:10013800550EA76EAA0EA76E0E010E01FF81586E0E
:10014800000E556E5850FCEC01F0586E000E556EBE
:1001580058500AEC02F0F28CF28E00D03F500D0A93
:10016800D8A401D001D073D0586E000E3F6E5850FD
:100178000001000E456E0001600E446E0001000192
:100188006051240AD8A401D001D061D00001000137
:100198006151470AD8A401D001D059D0000100010B
:1001A8006251500AD8A401D001D051D000010001F9
:1001B8006351520AD8A401D001D049D000010001EE
:1001C80064514D0AD8A401D001D041D000010001EA
:1001D8006551430AD8A401D001D039D000010001EB
:1001E8007251410AD8A401D001D031D08C8C820E32
:1001F800586EDD0EE82EFED7582EFCD700D0820EA2
:10020800586EDD0EE82EFED7582EFCD700D0820E91
:10021800586EDD0EE82EFED7582EFCD700D08C9CE9
:1002280044C0D9FF45C0DAFFDF50406E40502C0A69
:10023800D8A401D001D005D0000E326E440E316E24
:1002480018D0020E4426000E452201D000D03B50A3
:10025800D8B401D001D082D73BC055F00AEC02F0E7
:100268003BC03FF0586E000E3B6E585077D776D79C
:1002780075D767EF00F0000EA86E000E9C6E55A0B3
:1002880001D001D001D0A88855A201D001D002D058
:10029800A88C9C8C55A401D001D001D0A88E55A65D
:1002A80001D001D002D09C8801D09C8A55A801D0E9
:1002B80001D002D0A88401D0A89455AA01D001D0B9
:1002C80001D09C8655AC01D001D002D0A38A01D0C0
:1002D800A39A55AE01D001D002D0A38801D0A3982B
:1002E80056C0ABFF57507D6EA88A9C8E1200000E38
:1002F800AD6E000EAC6E55A001D001D001D0AD8816
:1003080055A201D001D002D0AD8CAC8C55A401D03F
:1003180001D001D0AD8E55A601D001D002D0AC8855
:1003280001D0AC8A55A801D001D001D0AD8455AA1E
:1003380001D001D001D0AC8655AC01D001D002D09B
:100348009D8A01D09D9A55AE01D001D002D09D88DA
:1003580001D09D9856C0B0FF57507F6EAD8AAC8EC5
:100368001200F20E3E169CAC01D001D007D03E9090
:100378009CA001D001D002D03E8000D09CA401D026
:1003880001D001D03E849CA201D001D001D03E868C
:10039800AACF46F0465000D01200F20E3D16ACAC83
:1003A80001D001D007D03D90ACA001D001D002D03F
:1003B8003D8000D0ACA401D001D001D03D84ACA2D6
:1003C80001D001D001D03D86AFCF46F0465000D0D5
:1003D800120000EE60F0640EEE6AE806FDE100EE41
:1003E80001F0450EEE6AE806FDE1000169EF00F054
:1003F800ADAC01D001D007D0AD903DA201D001D065
:1004080002D0AD8000D055C0AEFF1200A8AC01D01C
:1004180001D007D0A8903EA201D001D002D0A88078
:0804280000D055C0A9FF12002D
:08FFF800CEF417FFF3F8FFF14E
:00000001FF
